:020000040800F2
:10000000B0040020B11A0008951A0008971A0008D9
:10001000991A00089B1A00089D1A000800000000A9
:100020000000000000000000000000009F1A00080F
:10003000A11A000800000000A31A0008A51A000871
:10004000E51A0008E91A0008ED1A0008F11A00087C
:10005000F51A0008F91A0008FD1A0008011B00082B
:10006000051B0008091B00080D1B0008111B0008D8
:10007000151B0008191B00081D1B0008211B000888
:10008000251B0008291B00082D1B0008311B000838
:10009000351B0008391B00083D1B0008411B0008E8
:1000A000451B0008A71A0008491B00084D1B000843
:1000B000511B0008551B0008591B00085D1B000858
:1000C000611B0008651B0008691B00086D1B000808
:1000D000711B0008751B0008791B00087D1B0008B8
:1000E000811B0008851B0008891B00088D1B000868
:1000F000911B0008951B0008991B00089D1B000818
:10010000A11B0008A51B0008A91B0008AD1B0008C7
:10011000B11B0008B51B0008B91B0008BD1B000877
:10012000C11B0008C51B0008C91B0008CD1B000827
:10013000D11B0008D51B0008D91B0008DD1B0008D7
:10014000E11B0008E51B0008E91B0008ED1B000887
:10015000F11B0008F51B0008F91B0008FD1B000837
:10016000011C0008051C0008091C00080D1C0008E3
:10017000111C0008151C0008000000000000000011
:10018000191C00081D1C000838B5040001D101200D
:1001900032BD00F007F918B900F000F900F0B2FC28
:1001A0003CE090F83D10012901D001207047022168
:1001B00080F83D100168CA6842F00102CA60016817
:1001C000DFF8AC01814218BFB1F1804F12D0DFF8E7
:1001D000A40181421CBFDFF8A02191420AD0DFF8C0
:1001E0009C0181421FBFDFF898219142DFF8940102
:1001F00081420DD18A68DFF898010240062A18BFB3
:10020000B2F5803F08D0086840F00100086003E0C4
:100210000A6842F001020A600020704702206870FC
:10022000211D206800F058FA01202873A870E8709A
:1002300028716871A871E87128726872A872E872F2
:100240006870002032BD38B5040001D1012032BDF4
:1002500000F0A8F818B900F0A1F800F08FFCDDE775
:1002600070B500F091F809B902780FE0042908BFD1
:1002700042780BD0082908BF827807D00C2908BF24
:10028000C27803D010290CBF02794279012A01D02B
:10029000012070BD11B90222027014E0042902D1BC
:1002A000022242700FE0082902D1022282700AE085
:1002B0000C2902D10222C27005E0102907BF0222D8
:1002C00002710223437100F044F800F04BF818BFAC
:1002D000904208D088421FBFDFF8B850A842DFF82C
:1002E000B860B04201D100F01FF824689C4218BFEA
:1002F000B4F1804F0BD000F024F81CBF1E4B9C4281
:1003000005D000F01BF81CBF94428C4208D100F0CD
:1003100010F818BFB1F5803F04D000F01EF801E0DE
:1003200000F012F8002070BD456C45F400454564AE
:100330007047A16816480140062970470F4884425B
:1003400070470C4884427047216841F001012160E8
:1003500070472068012200F094BB206840F0010043
:10036000206070472068024B054A06499842704752
:10037000002C01400004004000080040000C004038
:100380000034014000400140044604F13E00704743
:10039000070001000044014000480140002129708D
:1003A0002046704704F13C056878704710B5044654
:1003B000206801698A0715D5C1688A0712D56FF0D0
:1003C0000201016101222277806910F0030F2046AB
:1003D00002D000F0D4FB03E000F0D2FB00F094F870
:1003E00000202077206801694A0715D5C1684A07AF
:1003F00012D56FF00401016102222277806910F4A6
:10040000407F204602D000F0BAFB03E000F0B8FBCA
:1004100000F07AF800202077206801690A0715D5D6
:10042000C1680A0712D56FF0080101610422227722
:10043000C06910F0030F204602D000F0A0FB03E0DB
:1004400000F09EFB00F060F8002020772068016932
:10045000CA0615D5C168CA0612D56FF01001016130
:1004600008222277C06910F4407F204602D000F0B5
:1004700086FB03E000F084FB00F046F800202077C4
:1004800020680169CA0708D5C168CA0705D56FF099
:1004900001010161204600F04CFC206801690A0658
:1004A00008D5C1680A0605D56FF0800101612046B4
:1004B00000F04EFC20680169CA0508D5C1680A062B
:1004C00005D56FF480710161204600F042FC206880
:1004D00001694A0608D5C1684A0605D56FF0400192
:1004E0000161204600F036FC206801698A060AD5C1
:1004F000C1688A0607D56FF0200101612046BDE87A
:10050000104000F028BC10BD204600F025BC38B5D6
:1005100000F07EF801D1022032BD012084F83C00B9
:1005200052B1042A19D0082A29D00C2A38D0102A0E
:1005300048D0142A57D067E0206800F023F92168DA
:10054000886940F008008861886920F004008861AB
:100550008A69286902438A6156E0206800F053F9ED
:100560002068816941F400618161816921F48061C1
:10057000816181692A6941EA0221816144E0206840
:1005800000F07AF92168C86940F00800C861C869BC
:1005900020F00400C861CA6928690243CA6133E0D7
:1005A000206800F0A1F92068C16941F40061C161CF
:1005B000C16921F48061C161C1692A6941EA0221EE
:1005C000C16121E0206800F0B6F92168486D40F073
:1005D00008004865486D20F0040048654A6D2869A8
:1005E00002434A6510E0206800F0CFF92068416DB1
:1005F00041F400614165416D21F480614165416DC7
:100600002A6941EA02214165002084F83C0032BD9C
:1006100004460D4694F83C000128704738B500F0B8
:100620004FF801D1022032BD0120207002226270F9
:10063000DFF8B4032A6893680340936008680200F7
:1006400018BF10282DD0202818BF302829D04028C6
:1006500023D0502816D0602818D0702803D0B0F5C9
:10066000005F07D021E000F026F82868816841F09B
:10067000770105E000F01FF82868816841F48041A7
:10068000816012E000F013F850210BE0CA6849685D
:10069000286800F0D2F9602104E000F008F8402159
:1006A00000E00146286800F0DAF90FE00000CA68AF
:1006B00049682868B2E1CB684A6889682868D6E149
:1006C000054605F13C042078012870470120607040
:1006D00000212170002032BD2DE9F043DFF80C73BA
:1006E000D0F800C0DFF80833DFF80843DFF808531C
:1006F000DFF80863DFF808E3DFF80883DFF8089322
:10070000B84218BFB0F1804F07D0484518BF4045E8
:1007100003D0704518BFB0420ED14A68B8422CF0E1
:10072000700C18BFB0F1804F42EA0C0C0CD0484559
:100730001CBF4045704507D0B04218BFA84203D047
:10074000A04218BF984204D1CA682CF4407C42EA07
:100750000C0C4A692CF0800C42EA0C020260B84290
:100760008A68C26218BFB0420A68826204D0A84296
:100770001CBFA042984201D1096901630122426174
:10078000BDE8F0832DE9F041026ADFF86082DFF80E
:100790006CE2DFF86072DFF860C252085200026259
:1007A000066A44688569DFF864220B6826F0020651
:1007B00015408A6816431D43404518BF70458C4B51
:1007C00004D060451CBFB84298420DD1CA6826F0DB
:1007D00008061643404518BF704526F0040605D0AC
:1007E000604518BFB84201D0984205D14B698A696B
:1007F00024F440741C431443446085614968416398
:100800000662BDE8F081F0B5026A22F010020262D1
:10081000056A436884697E4A0E6814408A6844EA1F
:10082000062425F0200545EA0215704E734AB042B1
:1008300018BF904208D1CF6825F0800545EA07151A
:10084000B04225F040050AD090421CBF6A4A90424F
:1008500005D0684EB0421CBF654A904206D14E6931
:100860008A6923F44063164343EA86034360846144
:10087000496881630562F0BDF0B5026A634B22F4FA
:1008800080720262066A4468C5690A6826F40076C6
:100890001D408B6846EA03261543544B574A98423D
:1008A00018BF904208D1CF6826F4006646EA0726B2
:1008B000984226F480660AD090421CBF4E4A90426D
:1008C00005D04C4B98421CBF494A904206D14B6917
:1008D0008A6924F44054134344EA03144460C56114
:1008E0004968C1630662F0BD70B5026A22F48052A5
:1008F0000262036A4468C569454A00F06DF823F452
:10090000005343EA0233B0421CBF3C4A904207D036
:10091000394EB0421FBF374A9042354EB04204D1E3
:100920004A6924F4804444EA82144460C5614968F9
:100930000164036270BD70B5026A364B22F48032E6
:100940000262046A4568466D0A681E4016438B6859
:10095000264A24F4003444EA034490421CBF274B47
:10096000984207D0244A90421FBF224B9842204A07
:10097000904204D14A6925F4803545EA0225456054
:10098000466549688165046270BD70B5026A22F4EB
:1009900080120262036A4468456D1F4A00F01CF829
:1009A00023F4001343EA0253B0421CBF134A90429F
:1009B00007D0114EB0421FBF0E4A90420C4EB042BB
:1009C00004D14A6924F4802444EA822444604565C1
:1009D0004968C165036270BD0E68154045EA062589
:1009E0008A68024E704700008800FEFF002C01401C
:1009F00000480140004401400040014000340140F3
:100A0000000C004000080040000400408CFFFEFF86
:100A1000FF8CFFFE8FFFFEFFFF8FFFFE10B5036A06
:100A2000046A64086400046223F00A03846924F001
:100A3000F00444EA021484612EE010B5036A23F046
:100A4000100303628369046A23F4704343EA0233A8
:100A500024F0A004836144EA0114046210BD82689A
:100A600022F07002114341F007018160704710B518
:100A7000846824F47F442143114341EA03218160C7
:100A800010BD10B501F01F01036A01248C40A3437F
:100A9000036202FA01F1036A1943016210BD30B426
:100AA000002513E050F8042BD30744BFA9F101033C
:100AB0009A18091F042942F8045BFAD213468C07DE
:100AC00044BF15809B1CC90748BF1D7050F8041B0C
:100AD0000029E7D130BC7047264881B0816841F0D9
:100AE00001018160816801F00101009100990268B3
:100AF00042F080520260006800F080500090009840
:100B000001B0704781B00068B0F1804F09D1194839
:100B1000016841F001010160006800F001000090EF
:100B2000009801B0704710B586B004461422002129
:100B300001A800F012F92168B1F1804F17D10E48D9
:100B4000016841F0010101602021006800F001000E
:100B500000900222009801910292002103910491D9
:100B60004FF090400121059101A900F001F906B074
:100B700010BD0000581002404C10024070477047F2
:100B8000704730B40EE00268436802440830DC0766
:100B900044BFA9F10104E31852F8045B43F8045B75
:100BA000091FF9D150F8041B0029ECD130BC704763
:100BB00010B58EB000F0CCF900F077F86048614CC9
:100BC000016841F0010101601022006800F001009D
:100BD0000090002100980AA800F0BFF80C22002124
:100BE000684600F0BAF81C22002103A800F0B5F80E
:100BF00040F21941A1604FF08040606040F69F7163
:100C000021610020E06060618021E161201DFFF72B
:100C1000BBFA08B100F09AF84FF480500A900AA984
:100C2000201DFFF7FBFC08B100F090F8201DFFF736
:100C30000AFB08B100F08AF8002100910291201D02
:100C4000694600F095F908B100F080F86021039141
:100C500040F6C4120492002105910022079203A9D4
:100C6000201DFFF754FC08B100F070F8201DFFF7BD
:100C70005AFF0021201DFFF7F3FA42F2107000F036
:100C8000C1F9208838B142F22E21884205D16FF097
:100C9000AE02628001E0AF216180B4F90210081851
:100CA000208080B200F032F8E7E780B596B04422A9
:100CB000002105A800F051F814220021684600F038
:100CC0004CF84FF4007000F0B7F908B100F03EF8AE
:100CD00001210B9110200590002260210C920D91B2
:100CE0000F9205A800F0E4F908B172B6FEE70F20F4
:100CF000009000210191029103910491684600F057
:100D00000CFC08B172B6FEE717B000BD18B587B08D
:100D10006022009201900022029204926946094CDE
:100D2000201DFFF7F4FB0021201DFFF799FA08B002
:100D300010BD00680449884208BF00F043BD7047F9
:100D40004C100240100000200044014072B6FEE743
:100D50007047704770477047704710B5044610469B
:100D60000A460146204600F035FD204610BD000031
:100D70002DE9F84F4FF000096C4A6D4B4FF00F080A
:100D800005460E4634E06B4CA54214BF07240624EA
:100D90008C4069493C4341F82C40C143146801EA46
:100DA000040C7468E40348BF40EA0C0CC2F800C0AD
:100DB000546801EA040C7468A40348BF40EA0C0CB0
:100DC000C2F804C0946801EA040C7468E40248BFE5
:100DD00040EA0C0CC2F808C0D46801EA040C71683F
:100DE000890248BF40EA0C0CC2F80CC009F10109A5
:100DF000316831FA09F000F09780012404FA09F40F
:100E000014EA0100F2D04FEA490C032101FA0CF177
:100E10006FEA010E7168E443012918BF022903D06B
:100E2000112918BF122910D1A968F7680EEA01012B
:100E300007FA0CF73943A96069687768C7F30017A8
:100E4000214007FA09F739436960716801F0030727
:100E5000032F07D1EF6AC1F3C0013C4001FA09F149
:100E60000C43EC62E968B4680EEA010104FA0CF480
:100E70002143E9604FEA89017468022C18BF122CE3
:100E800012D14FEAD90405EB840401F01C07D4F811
:100E900020A008FA07FB2AEA0B0AD6F810B00BFAD2
:100EA00007F747EA0A0727622C680EEA0407347935
:100EB00004F0030404FA0CF43C432C607468E4006E
:100EC00094D51C6844F001041C604FEA990C1C681E
:100ED00004F00104009401F00C01009C164C54F83D
:100EE0002C4008FA01F724EA0707B5F1904F08BF34
:100EF000002418D0114CA54208BF012413D0104C77
:100F0000A54208BF02240ED00E4CA54208BF032400
:100F100009D00D4CA54208BF042404D00B4CA542B7
:100F20007FF431AF052433E7BDE8F18F00040140C1
:100F3000601002400018004808000140000400480A
:100F400000080048000C0048001000480014004849
:100F5000032010B500F07FFC0F2000F0BDFC002442
:100F6000002814BF0124FFF7B7FD204610BD000084
:100F7000F0B500F13C042278012A01D10220F0BD35
:100F800001222270022363700668DFF868E0776848
:100F9000DFF864C0B568764518BF664503D14B6875
:100FA00027F470071F430A6827F07007174377601C
:100FB0000268724518BFB2F1804F0CD00C488242D3
:100FC0001CBF0E4B9A4206D0084882421EBF6245A3
:100FD0000B4B9A4204D1886825F080050543956043
:100FE0000121617000202070F0BD0000000C004065
:100FF00000040040002C0140003401400008004083
:101000000040014038B5044600F0A2FC14F1010F85
:10101000054602D004480178641800F099FC401B92
:10102000A042FAD331BD00BF00000020DFF87400F9
:10103000006800F4C060704710B5DFF86810B0F5C4
:10104000007F086800F4C06019D1B0F5007F1FD0A0
:101050000868DFF85420DFF8544020F4C06040F402
:10106000007000F017F800E0401E4A69530501D5F2
:101070000028F9D1486941050AD5032010BDB0F513
:10108000806F05D0086820F4C06040F4806008607C
:10109000002010BD0860322013684343B3FBF4F016
:1010A000401C7047007000400C00002040420F00C0
:1010B0002DE9FC47050065D0DFF8C876DFF8D46677
:1010C000BC68F86800F003082878C10604F00C0436
:1010D00048D524B10C2C08BFB8F1010F2CD13868C9
:1010E000810702D5A86900284CD0396808074EBF8F
:1010F000396871680909286A01F0F001814206D255
:1011000000F005FB00283DD100F0F5F907E000F004
:10111000F2F924B9286A00F0FAFA002832D100F076
:1011200086FABA6800F079FADFF86006006800F025
:10113000D3FB010016D0D8E1A86928B3396841F083
:101140000101396000F004FC81463868810707D44A
:1011500000F0FEFBA0EB09000328F6D30320C4E156
:1011600000F0C9F92878C10756D5082C04D00C2CFA
:1011700008BFB8F1030F18D1386881034CD56868EF
:10118000002849D10120B0E13868400840003860AB
:1011900000F0DEFB814638688107E3D500F0D8FB1C
:1011A000A0EB09000328F6D3D8E76868B0F5803FC4
:1011B00004D1386840F48030386011E0B0F5A02FD9
:1011C000386806D140F480203860396841F48031B5
:1011D00005E020F480303860396821F480213960DE
:1011E000686860B100F0B4FB81463868810313D4AD
:1011F00000F0AEFBA0EB09006528F6D3AEE700F0E7
:10120000A7FB81463868810306D500F0A1FBA0EB5F
:1012100009006528F6D3A1E72878810713D5042CA7
:1012200004D00C2C08BFB8F1020F22D13868410558
:1012300002D5E8680028A5D07868296920F0F85020
:1012400040EA016078602878010743D56869002882
:10125000706830D040F00100706000F079FB80468B
:101260007068810736D400F073FB00F040F9F7D3C3
:1012700074E7E86878B1396841F48071396000F04A
:1012800067FB804638684105D6D400F061FB00F06A
:101290002EF9F7D362E7386820F48070386000F0E8
:1012A00057FB804638684105CDD500F051FB00F072
:1012B0001EF9F7D352E740084000706000F048FB89
:1012C00080467068810705D500F042FB00F00FF9F9
:1012D000F7D343E72878410767D5B86DC1004FF0D1
:1012E00000080AD4B86D40F08050B8654FF001088E
:1012F000B86D00F0805000900098DFF89C94D9F809
:101300000000C10513D4D9F8000040F48070C9F87A
:10131000000000F01DFB8246D9F80000C10506D48C
:1013200000F016FBA0EB0A000328F5D316E7A86827
:10133000012804D1306840F00100306010E0052839
:10134000306806D140F004003060316841F001019E
:1013500005E0400840003060316821F00401316050
:10136000A86841F2893960B100F0F2FA824630682B
:10137000810713D400F0ECFAA0EB0A004845F6D33D
:10138000ECE600F0E5FA82463068810706D500F009
:10139000DFFAA0EB0A004845F6D3DFE6B8F1000F0C
:1013A00003D0B86D20F08050B865A86A002800F01E
:1013B0009B80022878D1F868EA6A00F00301914224
:1013C00001BF00F070012A6B521EB1EB021F1ED14B
:1013D0006A6B00F4FE41B1EB022F18D1A96B07290B
:1013E0000CBF0021012100F400328A420FD1EA6BC8
:1013F000520800F4C001521EB1EB425F07D1296CC4
:10140000490800F0C060491EB0EB416F48D00C2C79
:101410004BD03868410101D43868C1003FF5B2AE05
:10142000386820F08070386000F092FA044638681E
:10143000810105D500F08CFA001B0328F7D38DE657
:10144000F868DFF85813EA6A0840296B1043491E10
:1014500040EA0110EA6B696B520840EA0120296CEE
:10146000521E490840EA4250491E40EA4160A96BB9
:10147000090940EA4140F860386840F080703860FF
:10148000F96841F08071F96000F062FA044638684A
:10149000810129D400F05CFA001B0328F7D35DE634
:1014A0003868810120D4E7E70C2C3FF46BAE386834
:1014B00020F080703860396811F0205F03D1F8683F
:1014C00080088000F860F968DFF8D4020140F96014
:1014D00000F03EFA04463868810105D500F038FA7C
:1014E000001B0328F7D339E60020BDE8F687A0EB00
:1014F000080003287047386840F0080038603968F1
:10150000286A21F0F001014339607968E86921F423
:101510007F4141EA0021796070472DE9F0410400E4
:10152000884658D0DFF87C62306800F007004045FC
:1015300009D23168C90848EAC1013160306800F059
:101540000700404547D12078DFF83852C1072AD537
:101550006068032802D129688A0108E0022802D1C4
:1015600029688A0303E00028296802D18A0702D487
:1015700031E04A052FD5A968890840EA8100A860B2
:1015800000F0E6F90746A868616800F00C00B0EBCF
:10159000810F08D000F0DCF9C01B41F2893188428C
:1015A000F1D3032037E02078810705D5AA68A06829
:1015B00022F0F0020243AA60316801F00701884579
:1015C0000BD23068C00848EAC0003060316801F0D2
:1015D0000701414501D001201DE02078410705D5D4
:1015E000AA68E06822F4E0620243AA602178080752
:1015F00006D5A968206921F4605141EAC001A960BB
:1016000000F015F8AA6800F008F8BDE8F0415F485E
:10161000006800F061B9BDE8F0816349C2F30312CC
:10162000895C594A01F01F01C8401060704770B5CD
:10163000544A5F4B9068D6680025002110F00C00DA
:1016400006F003065B4C03D00C2812D1012E1AD1F0
:1016500015682E0704D44E4D2E68C6F3032502E00C
:101660001568C5F30315544E56F8255048B9294658
:1016700024E0042808BF214620D008281ED119469E
:101680001CE00C281AD1D06800F00300022803D017
:10169000032808BF1D4600E02546D168D068D268FF
:1016A000C0F306204543C1F30210C2F34161401C60
:1016B000491CB5FBF0F04900B0FBF1F1084670BDE4
:1016C00031483A4A006813683C49C3F3C222895C36
:1016D00001F01F01C840704710B50F220260334A65
:1016E000136803F003034360146804F0F00484609B
:1016F000136803F4E063C3601268D20802F4E06286
:1017000002612848026802F007020A6010BD7CB539
:101710002B4E054630680024C10002D5FFF786FC39
:101720000EE0306840F080503060316801F0805148
:1017300000910098FFF77AFC316821F08051316008
:10174000B0F5007F04D1802D0CD9A12D09D304E080
:10175000802D88BF032405D801D1022402E0702D1A
:1017600000D101240F480168C90844EAC1010160A1
:10177000006800F00700A04201D0012076BD0020E3
:1017800076BD0000001002400C0000200800002080
:101790009410024090100240007000408C809DF92F
:1017A000FFFFEEFE002002409C19000808100240D6
:1017B00000127A000024F400AC190008DC1A0008BA
:1017C000581002400248416802788A184260704707
:1017D0000000002062F30F2262F31F42401810F055
:1017E000030308D0C91A1FD3DB0748BF00F8012D37
:1017F00028BF20F8022D130030B4144615461039C6
:1018000028BF20E93C00FAD8490728BF20E90C008E
:1018100048BF40F8042D890028BF20F8022D48BF9A
:1018200000F8012D30BC7047C91818BF00F8012D11
:10183000CB0728BF00F8012D704700000901020006
:1018400002D42048815470471F4B02F00F021A4403
:1018500002F8041C70471D4B19684FF6FF02000286
:10186000114000F4E06008431949084318607047CC
:1018700070B5164B1C68C4F302230124C3F107059D
:10188000052D2EBF0F2504FA05F56D1E1E1D072E12
:1018900034BF0023DB1E2940994004FA03F3BDE85E
:1018A00070405B1E1A401143C8E70000010007D4D6
:1018B000012200F01F01074B8A40400943F8202015
:1018C0007047000000E400E018ED00E00CED00E0DF
:1018D0000000FA0500E100E018B5014687B00022DB
:1018E0001920FFF7C5FF1920FFF7E0FF1448154C3A
:1018F000016841F40031016001A9006800F4003082
:101900000090009802A8FFF7E7FEFFF7D9FE0E4906
:101910000E4B2160B0FBF3F0401E40F2E7326060F6
:101920000021E2602161A1602046FEF72DFC18B97C
:101930002046FEF736FC00E0012008B010BD000094
:1019400060100240600000200044014040420F004F
:1019500001484068704700BF000000200C48016843
:1019600041F47001016000220A49086840F001005A
:1019700008608A604FF480520B68074803400B6090
:10198000CA6000200B6823F480230B6088617047D5
:1019900088ED00E000100240FFFFF6EA00000000C2
:1019A000000000000102030406070809A0860100E8
:1019B000400D0300801A060000350C0040420F0065
:1019C00080841E0000093D0000127A000024F4000B
:1019D00000366E010048E801006CDC0210B50749D2
:1019E00079441831064C7C44163404E00A68081D1A
:1019F000114488470146A142F8D110BD2C000000D7
:101A00004C0000004EF68851CEF20001086840F408
:101A100070000860BFF34F8FBFF36F8F4FF00070FF
:101A2000E1EE100A7047000077F0FFFF9C00000015
:101A300010000020000000004BF1FFFF100000002C
:101A400080000000000000200000000000F00DF801
:101A5000002801D0FFF7C2FFAFF300800020AFF3F2
:101A60000080FFF7A5F800F002F80120704700F0B1
:101A700001B800000746384600F002F8FBE7000016
:101A800080B5AFF30080024A11001820ABBEFBE71F
:101A900026000200FEE7FEE7FEE7FEE7FEE77047EE
:101AA0007047704770470148FEF780BC6000002017
:101AB00001488047014800475D190008D11A000815
:101AC00001000000000000001000000000093D00BF
:101AD000AFF30080FFF796FFFFF7B8FF00000000AC
:101AE00001020304FFF7FEBFFFF7FEBFFFF7FEBFD3
:101AF000FFF7FEBFFFF7FEBFFFF7FEBFFFF7FEBF1A
:101B0000FFF7FEBFFFF7FEBFFFF7FEBFFFF7FEBF09
:101B1000FFF7FEBFFFF7FEBFFFF7FEBFFFF7FEBFF9
:101B2000FFF7FEBFFFF7FEBFFFF7FEBFFFF7FEBFE9
:101B3000FFF7FEBFFFF7FEBFFFF7FEBFFFF7FEBFD9
:101B4000FFF7FEBFFFF7FEBFFFF7FEBFFFF7FEBFC9
:101B5000FFF7FEBFFFF7FEBFFFF7FEBFFFF7FEBFB9
:101B6000FFF7FEBFFFF7FEBFFFF7FEBFFFF7FEBFA9
:101B7000FFF7FEBFFFF7FEBFFFF7FEBFFFF7FEBF99
:101B8000FFF7FEBFFFF7FEBFFFF7FEBFFFF7FEBF89
:101B9000FFF7FEBFFFF7FEBFFFF7FEBFFFF7FEBF79
:101BA000FFF7FEBFFFF7FEBFFFF7FEBFFFF7FEBF69
:101BB000FFF7FEBFFFF7FEBFFFF7FEBFFFF7FEBF59
:101BC000FFF7FEBFFFF7FEBFFFF7FEBFFFF7FEBF49
:101BD000FFF7FEBFFFF7FEBFFFF7FEBFFFF7FEBF39
:101BE000FFF7FEBFFFF7FEBFFFF7FEBFFFF7FEBF29
:101BF000FFF7FEBFFFF7FEBFFFF7FEBFFFF7FEBF19
:101C0000FFF7FEBFFFF7FEBFFFF7FEBFFFF7FEBF08
:101C1000FFF7FEBFFFF7FEBFFFF7FEBFFFF7FEBFF8
:0400000508001AD104
:00000001FF
